:100000000C9434000C9446000C9446000C9446006A
:100010000C9446000C9446000C9448000C94460046
:100020000C9446000C9446000C9446000C94460038
:100030000C9446000C9446000C9446000C94460028
:100040000C9446000C9446000C9446000C94460018
:100050000C9446000C9446000C9446000C94460008
:100060000C9446000C94460011241FBECFEFD8E03C
:10007000DEBFCDBF21E0A0E0B1E001C01D92A630FF
:10008000B207E1F70E9457010C946A010C9400003A
:100090008F9381E0809300018F911895F894A89533
:1000A000E0E6F0E080818861808381E6808383B729
:1000B000817F846083BF83B7816083BF7894889594
:1000C00083B78E7F83BF1092000108950F931F9313
:1000D000CF93DF93869586958695C82FD0E010E064
:1000E00000E00C171D0728F0DF91CF911F910F91B1
:1000F00008950E944E000F5F1F4FF3CF80E480935E
:100100007C0087E880937A00089590917C00907F2E
:100110008F70982B90937C0080917A0080648093FC
:100120007A0080917A0086FDFCCF809178009091D2
:1001300079000895529A0895529808955A9A089508
:100140005A98089589B182FB882780F90895AF9263
:10015000BF92CF92DF92EF92FF920F931F93CF93B4
:10016000DF930E949A000E94A0002FEF89EF90E099
:10017000215080409040E1F700C000000E949E00A6
:10018000E5EDEA95F1F700000E949C00C9EED3E08E
:100190000E94A200882311F0219719F4C9EED3E040
:1001A00009C0F5E0FA95F1F70000F2CF25E02A95B5
:1001B000F1F700000E94A200811102C02197B1F75F
:1001C000C9EED3E004C085E08A95F1F700000E94F3
:1001D000A200882311F02197B1F7C1E0D1E0AA2451
:1001E000A394B12C199207E010E06E0191E0C91AB6
:1001F000D10889EEE82E83E0F82E04C0E5E0EA9508
:10020000F1F700000E94A200811104C0F1E0EF1A92
:10021000F108A1F72AEB2A95F1F700C00E94A2008D
:10022000882351F0F60180819501002E01C0220F34
:100230000A94EAF7822B808399EEE92E93E0F92E57
:1002400004C0F5E0FA95F1F700000E94A2008823AF
:1002500021F021E0E21AF108A1F70150110948F656
:1002600091E0C630D90709F0BDCF8091010190918E
:100270000201890F9927991F20910301820F911D77
:1002800020910401280F392F311D9091050181E043
:100290009217130609F080E0DF91CF911F910F9123
:1002A000FF90EF90DF90CF90BF90AF900895259A88
:1002B0000E947E0080E00E948500EC010E94A70061
:1002C000C132D34028F02D9A8EE10E946600F2CF11
:0802D0002D98FACFF894FFCF3E
:00000001FF
