:100000000C9434000C9446000C9446000C9446006A
:100010000C9446000C9446000C9448000C94460046
:100020000C9446000C9446000C9446000C94460038
:100030000C9446000C9446000C9446000C94460028
:100040000C9446000C9446000C9446000C94460018
:100050000C9446000C9446000C9446000C94460008
:100060000C9446000C94460011241FBECFEFD8E03C
:10007000DEBFCDBF21E0A0E0B1E001C01D92A630FF
:10008000B207E1F70E9475010C94EA010C9400009C
:100090008F9381E0809300018F911895F894A89533
:1000A000E0E6F0E080818861808381E6808383B729
:1000B000817F846083BF83B7816083BF7894889594
:1000C00083B78E7F83BF1092000108958F929F9215
:1000D000AF92BF92CF92DF92EF92FF92CF93DF93D6
:1000E00000D000D0CDB7DEB76B017C0183E0F69481
:1000F000E794D794C7948A95D1F7812C912C540119
:100100008C149D04AE04BF0479F40F900F900F90EF
:100110000F90DF91CF91FF90EF90DF90CF90BF9045
:10012000AF909F908F9008950E944E008FEF881A95
:10013000980AA80AB80AE4CF80E480937C0087E894
:1001400080937A00089590917C00907F8F70982B17
:1001500090937C0080917A00806480937A008091F3
:100160007A0086FDFCCF8091780090917900089507
:10017000529A0895529808955A9A08955A9808954F
:1001800089B182FB882780F90895AF92BF92CF9200
:10019000DF92EF92FF920F931F93CF93DF930E9412
:1001A000B8000E94BE002FEF89EF90E02150804000
:1001B0009040E1F700C000000E94BC00E5EDEA9528
:1001C000F1F700000E94BA00C9EED3E00E94C0001F
:1001D000882311F0219719F4C9EED3E009C0F5E0A6
:1001E000FA95F1F70000F2CF25E02A95F1F700002B
:1001F0000E94C000811102C02197B1F7C9EED3E07F
:1002000004C085E08A95F1F700000E94C0008823B1
:1002100011F02197B1F7C1E0D1E0AA24A394B12C49
:10022000199207E010E06E0191E0C91AD10889EE39
:10023000E82E83E0F82E04C0E5E0EA95F1F700002F
:100240000E94C000811104C0F1E0EF1AF108A1F78B
:100250002AEB2A95F1F700C00E94C000882351F0D4
:10026000F60180819501002E01C0220F0A94EAF761
:10027000822B808399EEE92E93E0F92E04C0F5E0FD
:10028000FA95F1F700000E94C000882321F021E0D8
:10029000E21AF108A1F70150110948F691E0C630C1
:1002A000D90709F0BDCF8091010190910201890F1A
:1002B0009927991F20910301820F911D209104011C
:1002C000280F392F311D9091050181E092171306F7
:1002D00009F080E0DF91CF911F910F91FF90EF9097
:1002E000DF90CF90BF90AF900895259A0E949C0018
:1002F0008AB1806F8AB980E00E94A300EC010E945D
:10030000C500811104C0109101010091030190EA20
:10031000C92E9CE8D92EE12CF12C133270F020EE7E
:10032000C22E24ECD22EE12CF12C1D3330F480ECC3
:10033000C82E88EAD82EE12CF12C003110F520E6E9
:10034000C20E24E5D21EE11CF11C8BB1807F8BB95B
:10035000C13223E0D207F0F08BB1807F8BB95F9A76
:100360006AE070E080E090E00E94660080E00E9419
:10037000A300833C9140A0F7C701B6010E9466002C
:10038000BACF0A3110F380E6C81A84E5D80AE1082A
:10039000F108DBCFCB3882E0D80728F08BB1807F23
:1003A0008BB95E9AE9CFC33C21E0D20728F08BB12C
:1003B000807F8BB95D9AE0CFCC37D140E8F68BB126
:1003C000807F8BB95C9A60E576E480E090E00E94E3
:0803D0006600D2CFF894FFCFC4
:00000001FF
